:100000000C9434000C9449000C9449000C94490061
:100010000C9449000C9449000C9449000C9449003C
:100020000C9449000C9449000C9449000C9449002C
:100030000C9449000C9449000C9449000C9449001C
:100040000C9449000C9449000C9449000C9449000C
:100050000C9449000C9449000C9449000C944900FC
:100060000C9449000C94490011241FBECFEFD8E036
:10007000DEBFCDBF12E0A0E0B1E0ECE9F2E102C0EA
:1000800005900D92A830B107D9F70E94D2010C94C7
:100090004C090C9400008BB188668BB92B9A08959B
:1000A0005D985E9A08955B982B9A0895BC0140E094
:1000B00050E020E030E01EC02F5F3F4F2436310576
:1000C00018F020E030E003C02A31310530F45D98AB
:1000D0005E9A2A31310530F007C08BB188668BB942
:1000E0002B9A02C05B9803C08BB188668BB92B9AA0
:1000F0004F5F5F4F64177507FCF680E090E008954E
:10010000AF92BF92CF92DF92EF92FF920F931F9325
:100110000E94E0069B0177FF03C0309521953F4F79
:10012000B901882777FD8095982F0E9482067B0170
:100130008C0120E33AED4CEF5CE30E948805A801B6
:1001400097010E948805A80197010E9488055B011C
:100150006C01C801B70128E935EB45E050EC0E947D
:100160008805A80197010E9488059B01AC01C60182
:10017000B5010E945B055B016C01C801B7012AE76C
:100180003BE142E952E40E9488059B01AC01C601B3
:10019000B5010E945B052DE931ED4AE753E40E9469
:1001A0005B050E94E006CB011F910F91FF90EF903D
:1001B000DF90CF90BF90AF9008955D9A5E980895BC
:1001C0002B985B9A0895BC0120E030E040E050E0BD
:1001D0001FC02F5F3F4F2436310518F020E030E07C
:1001E00003C02A31310530F45D9A5E982A31310519
:1001F00030F008C08BB188668BB92B9A03C02B985E
:100200005B9A04C08BB188668BB92B9A4F5F5F4FA6
:1002100064177507F4F680E090E0089520E030E080
:1002200040E050E02F5F3F4F2436310518F020E0CA
:1002300030E003C02A31310530F45D985E9A2A31EE
:10024000310530F008C08BB188668BB92B9A03C09A
:100250005B9A2B9804C08BB188668BB92B9A4F5F41
:100260005F4F81E041395807E9F6089520E030E01A
:1002700040E050E02F5F3F4F2436310518F020E07A
:1002800030E003C02A31310530F45E985D9A2A319E
:10029000310530F008C08BB188668BB92B9A03C04A
:1002A0002B9A5B9804C08BB188668BB92B9A4F5FF1
:1002B0005F4F81E04C385807E9F60895AF92BF923E
:1002C000CF92DF92EF92FF920F931F93CF93DF9322
:1002D0006C018B015A017901C0E0D0E08BB18866D6
:1002E0008BB92B9A81E090E00E94C103219683E0B4
:1002F000C93ED80799F7C0E0D0E00AC0F7FC04C0B7
:10030000C8010E94560003C0C8010E94E300219664
:100310000C171D079CF7C0E0D0E08BB188668BB945
:100320002B9A81E090E00E94C103219681E0C53FB5
:10033000D80799F7C0E0D0E0B7FC03C00E940E01D7
:1003400002C00E943601219681E0C139D807A1F789
:10035000C0E0D0E08BB188668BB92B9A81E090E049
:100360000E94C103219681E0C53FD80799F7C0E0FC
:10037000D0E004C0C6010E9456002196CC16DD06CE
:10038000CCF78BB188668BB92B9A80E090E0DF9137
:10039000CF911F910F91FF90EF90DF90CF90BF9082
:1003A000AF9008952F923F924F925F926F927F92FB
:1003B0008F929F92AF92BF92CF92DF92EF92FF9275
:1003C0000F931F93DF93CF9300D000D000D0CDB711
:1003D000DEB783B1082F10E00071107083B1682E72
:1003E000772422E06222772483B1882E992430E298
:1003F000832299240E9470038CE090E00E94C10344
:1004000081E090E00E94C10384B18D7C84B9239A7D
:100410008AB188668AB983B18D7C83B98BB18866CD
:100420008BB92B9A1E821D82222433244424552406
:1004300032EEE32E3FEFF32E22EEA22E2FEFB22E5E
:1004400002C01E821D8283B190E08270907086157A
:10045000970519F4222433240BC0199903C091E0A5
:10046000292E312C83B1682E772482E068227724EC
:100470008CED95E00197F1F791E02916310499F49C
:100480000894E11CF11CC701BE016F5F7F4F4AE079
:1004900050E00E94070981E090E00E94C103CE0174
:1004A00001960E94AD0383B190E080729070881530
:1004B000990519F4442455240BC01D9903C081E00B
:1004C000482E512C83B1882E992420E2822299242F
:1004D0008CED95E00197F1F731E043165104B9F442
:1004E0000894A11CB11CC501BE016D5F7F4F4AE09D
:1004F00050E00E94070981E090E00E94C10385E07E
:1005000060E00E94B903CE0103960E94AD0383B15F
:1005100090E0807190708017910709F492CF1C9938
:1005200004C081E090E09E838D83B701882777FD2A
:100530008095982F0E9482060E9480006C01B50170
:10054000882777FD8095982F0E9482060E94800060
:100550008C0183B12D813E812130310529F0082F96
:1005600010E0007110706FCF81E090E00E94C10335
:10057000C601B801A70195010E945E01C7018E0165
:100580000F5F1F4FB8014AE050E00E940709C80101
:100590000E94AD038E010D5F1F4FC501B8014AE0F7
:1005A00050E00E94070980E061E00E94B903C801A1
:1005B0000E94AD038BB188668BB92B9A80E090E0E6
:1005C00026960FB6F894DEBF0FBECDBFCF91DF9158
:1005D0001F910F91FF90EF90DF90CF90BF90AF9061
:1005E0009F908F907F906F905F904F903F902F9053
:1005F0000895219A249A259A579A08952198249823
:100600002598579808955C9A86E08A95F1F700C07E
:1006100089B1881F8827881F880F880F880F1D9928
:1006200084601C998260199981605C98089580FFAC
:100630000CC0299A81FF0BC02C9A82FF0AC02D9A08
:1006400083FF09C05F9A0C9403032998F3CF2C9879
:10065000F4CF2D98F5CF5F98F6CFCF93DF935A98CC
:100660000E94FE02289A0E940303C82F0E940303DF
:1006700090E1C99FE00111248C2B87FDF0CFDF9121
:10068000CF910895CF93C82F0E942D0328985A9890
:100690000E94F9028C2F82958F700E9417038C2F75
:1006A0008F700E9417030E94FE028FE0CF910C947E
:1006B0001703CF93C82F0E942D0328985A9A0E949F
:1006C000F9028C2F82958F700E9417038C2F8F70E8
:1006D0000E9417030E94FE028FE0CF910C94170333
:1006E00028985A985C98529A209A549A0E94F90233
:1006F0002FE58AEE90E0215080409040E1F700C065
:10070000000083E00E9417038FE295E70197F1F75D
:1007100000C0000083E00E9417038FE097E201977A
:10072000F1F700C0000083E00E9417038FE097E21A
:100730000197F1F700C0000082E00E9417030E94B9
:100740002D0388E20E94420388E00E94420381E078
:100750000E94420386E00C944203CF93DF93EC01A6
:100760008991811103C0DF91CF9108950E945903AF
:10077000F7CF90E4699FB0011124862B80680C9418
:1007800042030C9442038F708A3018F4805D0C94FD
:100790005903895CFCCFCF93C82F82958F700E943C
:1007A000C3038C2FCF910C94C303CF93C82F892FF1
:1007B0000E94CB038C2FCF910C94CB03A0E0B0E030
:1007C000E4EEF3E00C94D008DC012B01FA019C91DB
:1007D000923008F439C1EB018881823008F433C1CA
:1007E000943069F4843009F02FC111969C911197CF
:1007F0008981981709F428C1A0E0B1E025C18430AF
:1008000009F421C18230A9F4923009F01DC19A0186
:10081000AD0188E0EA010990AE01E90109929E016B
:100820008150C1F7E201898111969C9189238183CE
:1008300008C1923009F407C112962D903C9013978D
:10084000EB018A819B811496AD90BD90CD90DC9098
:100850001797EC80FD800E811F819101281B390BB9
:10086000B90137FF04C066277727621B730B60321C
:1008700071050CF061C0121613066CF537014801C2
:10088000062E04C096948794779467940A94D2F7BE
:1008900021E030E040E050E004C0220F331F441F4D
:1008A000551F6A95D2F721503040404050402E21CC
:1008B0003F2140235123211531054105510521F0E8
:1008C00021E030E040E050E079018A01E628F72895
:1008D000082919293CC0232BD1F1260E371E3501DA
:1008E0004601062E04C096948794779467940A94E0
:1008F000D2F721E030E040E050E004C0220F331F87
:10090000441F551F6A95D2F7215030404040504057
:100910002A213B214C215D2121153105410551053D
:1009200021F021E030E040E050E059016A01A628C2
:10093000B728C828D9280BC0821593052CF01C01B4
:10094000AA24BB24650103C0EE24FF24870111966D
:100950009C91D20111968C91981709F445C0992366
:1009600039F0A80197012A193B094C095D0906C015
:10097000A60195012E193F09400B510B57FD08C0E8
:1009800011823382228224833583468357831DC09C
:1009900081E081833382228288279927DC01821BB0
:1009A000930BA40BB50B84839583A683B7830DC0EB
:1009B000220F331F441F551F2483358346835783DB
:1009C000828193810197938382832481358146813B
:1009D0005781DA01C9010197A109B1098F5F9F4FC2
:1009E000AF4FBF4328F30BC0918333822282EA0CBE
:1009F000FB1C0C1D1D1DE482F5820683178383E01A
:100A00008083248135814681578157FF1AC0C901EF
:100A1000AA2797FDA095BA2F81709070A070B07032
:100A20005695479537952795822B932BA42BB52B5D
:100A300084839583A683B783828193810196938370
:100A40008283DF0101C0D201CD01CDB7DEB7E2E183
:100A50000C94EC08A0E2B0E0E0E3F5E00C94DC08D4
:100A600069837A838B839C832D833E834F8358874E
:100A7000E9E0EE2EF12CEC0EFD1ECE010196B70141
:100A80000E9458088E010F5E1F4FCE010596B801D7
:100A90000E9458088A8991E089278A8BC701B8018A
:100AA000AE01475E5F4F0E94DE030E948307A0965F
:100AB000E6E00C94F808A0E2B0E0E1E6F5E00C9482
:100AC000DC0869837A838B839C832D833E834F83E9
:100AD0005887F9E0EF2EF12CEC0EFD1ECE010196A9
:100AE000B7010E9458088E010F5E1F4FCE01059678
:100AF000B8010E945808C701B801AE01475E5F4FB8
:100B00000E94DE030E948307A096E6E00C94F8089A
:100B1000A0E2B0E0EEE8F5E00C94D00869837A83B7
:100B20008B839C832D833E834F835887CE01019610
:100B3000BE01675F7F4F0E945808CE010596BE0137
:100B40006F5E7F4F0E9458089985923088F089899E
:100B50008230C8F0943019F4823051F404C08430EB
:100B600029F4923081F480E091E0C6C0923049F4DB
:100B700020E09A858A89981321E02A87CE01099678
:100B8000BBC0823049F420E09A858A89981321E01D
:100B90002A8BCE014196B0C02D843E844F84588864
:100BA0006D887E888F88988CEE24FF248701AA2484
:100BB000BB24650140E050E060E070E0E0E0F0E080
:100BC000C10181709070892BE9F0E60CF71C081DBB
:100BD000191D9A01AB012A0D3B1D4C1D5D1D80E0C6
:100BE00090E0A0E0B0E0E614F7040805190520F451
:100BF00081E090E0A0E0B0E0BA01A901480F591FE0
:100C00006A1F7B1FAA0CBB1CCC1CDD1C97FE08C0F6
:100C100081E090E0A0E0B0E0A82AB92ACA2ADB2A45
:100C20003196E032F10549F0660C771C881C991C5E
:100C30005694479437942794C3CFFA85EA892B8931
:100C40003C898B859C85280F391F2E5F3F4F17C02D
:100C5000CA0181709070892B61F016950795F79401
:100C6000E79480E090E0A0E0B0E8E82AF92A0A2BB7
:100C70001B2B76956795579547952F5F3F4F77FDCF
:100C8000E7CF0CC0440F551F661F771F17FD41604B
:100C9000EE0CFF1C001F111F21503040403090E02F
:100CA000590790E0690790E4790760F32B8F3C8F38
:100CB000DB01CA018F779070A070B070803491050D
:100CC000A105B10561F447FD0AC0E114F104010575
:100CD000110529F0405C5F4F6F4F7F4F40781A8EAF
:100CE000FE1711F081E08A8F4D8F5E8F6F8F78A392
:100CF00083E0898FCE0149960E948307A096E2E1A6
:100D00000C94EC08A8E0B0E0E8E8F6E00C94D90810
:100D10009B01AC0183E08983DA01C9018827B7FD13
:100D200083959927AA27BB27B82E211531054105A0
:100D3000510519F482E089833AC08823A9F0203054
:100D400080E0380780E0480780E8580729F460E031
:100D500070E080E09FEC30C0EE24FF248701E21AAF
:100D6000F30A040B150B02C079018A018EE1C82E2B
:100D7000D12CDC82CB82ED82FE820F831887C801E2
:100D8000B7010E94340701971816190684F4082E3B
:100D900004C0EE0CFF1C001F111F0A94D2F7ED8255
:100DA000FE820F831887C81AD90ADC82CB82BA82E6
:100DB000CE0101960E9483072896E9E00C94F5087D
:100DC000ACE0B0E0E6EEF6E00C94E00869837A83EC
:100DD0008B839C83CE010196BE016B5F7F4F0E9487
:100DE00058088D81823061F1823050F1843021F4D5
:100DF0008E81882351F12EC02F81388537FD20C088
:100E00006E812F3131051CF06623F9F023C08EE18D
:100E100090E0821B930B29853A854B855C8504C045
:100E200056954795379527958A95D2F76623B1F061
:100E300050954095309521953F4F4F4F5F4F0EC0D5
:100E400020E030E040E050E009C02FEF3FEF4FEFEF
:100E50005FE704C020E030E040E050E8B901CA019B
:100E60002C96E2E00C94FC08EF92FF920F931F93F4
:100E70007B018C0180E0E81680E0F80681E008073D
:100E800080E0180788F48FEFE816F10401051105DA
:100E900031F028F088E090E0A0E0B0E017C080E0FA
:100EA00090E0A0E0B0E012C080E0E81680E0F80634
:100EB00080E0080781E0180728F088E190E0A0E0D2
:100EC000B0E004C080E190E0A0E0B0E020E230E0DB
:100ED00040E050E0281B390B4A0B5B0B04C0169511
:100EE0000795F794E7948A95D2F7F701E85FFE4FEC
:100EF0008081281B310941095109C9011F910F91B6
:100F0000FF90EF900895DF92EF92FF920F931F935F
:100F1000FC01E480F58006811781D18080818230D8
:100F200048F480E090E0A0E1B0E0E82AF92A0A2B3A
:100F30001B2BA5C0843009F49FC0823021F4EE241D
:100F4000FF24870105C0E114F1040105110519F41E
:100F5000E0E0F0E096C0628173819FEF623879072C
:100F60000CF05BC022E83FEF261B370B2A3131051E
:100F70002CF020E030E040E050E02AC0B801A701AA
:100F8000022E04C076956795579547950A94D2F737
:100F900081E090E0A0E0B0E004C0880F991FAA1F94
:100FA000BB1F2A95D2F70197A109B1098E219F2174
:100FB000A023B1230097A105B10521F081E090E0C5
:100FC000A0E0B0E09A01AB01282B392B4A2B5B2B18
:100FD000DA01C9018F779070A070B07080349105EC
:100FE000A105B10539F427FF09C0205C3F4F4F4FE1
:100FF0005F4F04C0215C3F4F4F4F5F4FE0E0F0E098
:101000002030A0E03A07A0E04A07A0E45A0710F019
:10101000E1E0F0E079018A0127C06038710564F5EC
:10102000FB01E158FF4FD801C7018F779070A07086
:10103000B07080349105A105B10539F4E7FE0DC00B
:1010400080E490E0A0E0B0E004C08FE390E0A0E096
:10105000B0E0E80EF91E0A1F1B1F17FF05C016950A
:101060000795F794E794319687E016950795F794DE
:10107000E7948A95D1F705C0EE24FF248701EFEFAE
:10108000F0E06E2F679566276795902F9F77D7942E
:10109000DD24D7948E2F8695492F462B582F5D2916
:1010A000B701CA011F910F91FF90EF90DF90089553
:1010B000FC01DB01408151812281622F6F7770E05A
:1010C000221F2227221F9381892F880F822B282FEE
:1010D00030E0991F9927991F11969C93119721151C
:1010E0003105A9F5411551056105710511F482E03D
:1010F00037C082E89FEF13969C938E9312979A01C4
:10110000AB0167E0220F331F441F551F6A95D1F7CB
:1011100083E08C930DC0220F331F441F551F12967E
:101120008D919C911397019713969C938E93129790
:10113000203080E0380780E0480780E4580758F303
:1011400014962D933D934D935C93179708952F3FDD
:10115000310579F4411551056105710519F484E0F3
:101160008C93089564FF03C081E08C9312C01C929D
:1011700010C02F57304013963C932E93129783E064
:101180008C9387E0440F551F661F771F8A95D1F710
:10119000706414964D935D936D937C9317970895A7
:1011A0002F923F924F925F926F927F928F929F9277
:1011B000AF92BF92CF92DF92EF92FF920F931F9365
:1011C000CF93DF93CDB7DEB7CA1BDB0B0FB6F89416
:1011D000DEBF0FBECDBF09942A88398848885F8456
:1011E0006E847D848C849B84AA84B984C884DF80C7
:1011F000EE80FD800C811B81AA81B981CE0FD11DAB
:101200000FB6F894DEBF0FBECDBFED010895FB0110
:101210009F01E8944230C4F04532B4F44A3029F4D6
:1012200097FB1EF4909581959F4F642F77270E941E
:101230003809805D8A330CF0895D8193CB0100977A
:10124000A1F716F45DE251931082C9010C942809AC
:10125000DC01FC01672F71917723E1F7329704C01D
:101260007C916D9370836291AE17BF07C8F30895A8
:10127000AA1BBB1B51E107C0AA1FBB1FA617B707BC
:1012800010F0A61BB70B881F991F5A95A9F78095D8
:0C1290009095BC01CD010895F894FFCFAB
:10129C000000000000000000000102020303030331
:1012AC0004040404040404040505050505050505EA
:1012BC0005050505050505050606060606060606CA
:1012CC0006060606060606060606060606060606B2
:1012DC00060606060606060607070707070707079A
:1012EC000707070707070707070707070707070782
:1012FC000707070707070707070707070707070772
:10130C000707070707070707070707070707070761
:10131C000707070707070707080808080808080849
:10132C000808080808080808080808080808080831
:10133C000808080808080808080808080808080821
:10134C000808080808080808080808080808080811
:10135C000808080808080808080808080808080801
:10136C0008080808080808080808080808080808F1
:10137C0008080808080808080808080808080808E1
:10138C0008080808080808080808080808080808D1
:08139C00080808080808080809
:00000001FF
